{
  "abi": [
    {
      "constant": false,
      "inputs": [
        {
          "name": "ID",
          "type": "uint256"
        },
        {
          "name": "tracker",
          "type": "address"
        },
        {
          "name": "amount",
          "type": "uint256"
        },
        {
          "name": "receiver",
          "type": "address"
        }
      ],
      "name": "sendFundsFromReceiverTo",
      "outputs": [
        {
          "name": "",
          "type": "bool"
        }
      ],
      "payable": false,
      "stateMutability": "nonpayable",
      "type": "function"
    },
    {
      "constant": false,
      "inputs": [
        {
          "name": "number",
          "type": "uint8"
        }
      ],
      "name": "createReceivers",
      "outputs": [],
      "payable": false,
      "stateMutability": "nonpayable",
      "type": "function"
    },
    {
      "constant": true,
      "inputs": [],
      "name": "owner",
      "outputs": [
        {
          "name": "",
          "type": "address"
        }
      ],
      "payable": false,
      "stateMutability": "view",
      "type": "function"
    },
    {
      "constant": false,
      "inputs": [
        {
          "name": "ID",
          "type": "uint256"
        },
        {
          "name": "amount",
          "type": "uint256"
        },
        {
          "name": "receiver",
          "type": "address"
        }
      ],
      "name": "sendETHTo",
      "outputs": [],
      "payable": false,
      "stateMutability": "nonpayable",
      "type": "function"
    },
    {
      "constant": true,
      "inputs": [
        {
          "name": "",
          "type": "uint256"
        }
      ],
      "name": "receiversMap",
      "outputs": [
        {
          "name": "",
          "type": "address"
        }
      ],
      "payable": false,
      "stateMutability": "view",
      "type": "function"
    },
    {
      "inputs": [],
      "payable": false,
      "stateMutability": "nonpayable",
      "type": "constructor"
    }
  ],
  "bytecode": "6080604052600060025534801561001557600080fd5b5060008054600160a060020a03191633179055610633806100376000396000f30060806040526004361061006c5763ffffffff7c0100000000000000000000000000000000000000000000000000000000600035041663457f4fa28114610071578063593b06fe146100b35780638da5cb5b146100d0578063a0d347d814610101578063ff5422f014610128575b600080fd5b34801561007d57600080fd5b5061009f600435600160a060020a036024358116906044359060643516610140565b604080519115158252519081900360200190f35b3480156100bf57600080fd5b506100ce60ff60043516610211565b005b3480156100dc57600080fd5b506100e56102b2565b60408051600160a060020a039092168252519081900360200190f35b34801561010d57600080fd5b506100ce600435602435600160a060020a03604435166102c1565b34801561013457600080fd5b506100e5600435610369565b60008054600160a060020a0316331461015857600080fd5b60008581526001602090815260408083205481517f89d4e6cd000000000000000000000000000000000000000000000000000000008152600160a060020a038981166004830152602482018990528781166044830152925192909116936389d4e6cd9360648084019491939192918390030190829087803b1580156101dc57600080fd5b505af11580156101f0573d6000803e3d6000fd5b505050506040513d602081101561020657600080fd5b505195945050505050565b60008054600160a060020a0316331461022957600080fd5b5060005b8160ff168160ff1610156102ae57610243610384565b604051809103906000f08015801561025f573d6000803e3d6000fd5b5060028054600190810191829055600091825260208190526040909120805473ffffffffffffffffffffffffffffffffffffffff1916600160a060020a0393909316929092179091550161022d565b5050565b600054600160a060020a031681565b600054600160a060020a031633146102d857600080fd5b6000838152600160205260408082205481517fc664c71400000000000000000000000000000000000000000000000000000000815260048101869052600160a060020a0385811660248301529251929091169263c664c7149260448084019382900301818387803b15801561034c57600080fd5b505af1158015610360573d6000803e3d6000fd5b50505050505050565b600160205260009081526040902054600160a060020a031681565b60405161027380610395833901905600608060405234801561001057600080fd5b5060008054600160a060020a03191633179055610241806100326000396000f3006080604052600436106100565763ffffffff7c010000000000000000000000000000000000000000000000000000000060003504166389d4e6cd81146100585780638da5cb5b14610097578063c664c714146100c8575b005b34801561006457600080fd5b50610083600160a060020a0360043581169060243590604435166100ec565b604080519115158252519081900360200190f35b3480156100a357600080fd5b506100ac6101b4565b60408051600160a060020a039092168252519081900360200190f35b3480156100d457600080fd5b50610056600435600160a060020a03602435166101c3565b60008054600160a060020a0316331461010457600080fd5b83600160a060020a031663a9059cbb83856040518363ffffffff167c01000000000000000000000000000000000000000000000000000000000281526004018083600160a060020a0316600160a060020a0316815260200182815260200192505050602060405180830381600087803b15801561018057600080fd5b505af1158015610194573d6000803e3d6000fd5b505050506040513d60208110156101aa57600080fd5b5051949350505050565b600054600160a060020a031681565b600054600160a060020a031633146101da57600080fd5b604051600160a060020a0382169083156108fc029084906000818181858888f19350505050158015610210573d6000803e3d6000fd5b5050505600a165627a7a7230582042360a4cca6f94d762dc905e7e0c7c57a320ec2b5c110697d3ebf5b33c7953c90029a165627a7a723058200b5c5c0bee7e6f8a983a11e559c64a68c5e35bb2a897eab96446af5be01428280029",
  "bytecodeSha1": "8939e672810e6f00443f27bad3f8fc6a1d31dc0a",
  "compiler": {
    "evm_version": "byzantium",
    "optimizer": {
      "enabled": true,
      "runs": 200
    },
    "version": "0.4.26+commit.4563c3fc"
  },
  "contractName": "Factory",
  "language": "Solidity",
  "natspec": {
    "methods": {}
  },
  "opcodes": "PUSH1 0x80 PUSH1 0x40 MSTORE PUSH1 0x4 CALLDATASIZE LT PUSH2 0x6C JUMPI PUSH4 0xFFFFFFFF PUSH29 0x100000000000000000000000000000000000000000000000000000000 PUSH1 0x0 CALLDATALOAD DIV AND PUSH4 0x457F4FA2 DUP2 EQ PUSH2 0x71 JUMPI DUP1 PUSH4 0x593B06FE EQ PUSH2 0xB3 JUMPI DUP1 PUSH4 0x8DA5CB5B EQ PUSH2 0xD0 JUMPI DUP1 PUSH4 0xA0D347D8 EQ PUSH2 0x101 JUMPI DUP1 PUSH4 0xFF5422F0 EQ PUSH2 0x128 JUMPI JUMPDEST PUSH1 0x0 DUP1 REVERT JUMPDEST CALLVALUE DUP1 ISZERO PUSH2 0x7D JUMPI PUSH1 0x0 DUP1 REVERT JUMPDEST POP PUSH2 0x9F PUSH1 0x4 CALLDATALOAD PUSH1 0x1 PUSH1 0xA0 PUSH1 0x2 EXP SUB PUSH1 0x24 CALLDATALOAD DUP2 AND SWAP1 PUSH1 0x44 CALLDATALOAD SWAP1 PUSH1 0x64 CALLDATALOAD AND PUSH2 0x140 JUMP JUMPDEST PUSH1 0x40 DUP1 MLOAD SWAP2 ISZERO ISZERO DUP3 MSTORE MLOAD SWAP1 DUP2 SWAP1 SUB PUSH1 0x20 ADD SWAP1 RETURN JUMPDEST CALLVALUE DUP1 ISZERO PUSH2 0xBF JUMPI PUSH1 0x0 DUP1 REVERT JUMPDEST POP PUSH2 0xCE PUSH1 0xFF PUSH1 0x4 CALLDATALOAD AND PUSH2 0x211 JUMP JUMPDEST STOP JUMPDEST CALLVALUE DUP1 ISZERO PUSH2 0xDC JUMPI PUSH1 0x0 DUP1 REVERT JUMPDEST POP PUSH2 0xE5 PUSH2 0x2B2 JUMP JUMPDEST PUSH1 0x40 DUP1 MLOAD PUSH1 0x1 PUSH1 0xA0 PUSH1 0x2 EXP SUB SWAP1 SWAP3 AND DUP3 MSTORE MLOAD SWAP1 DUP2 SWAP1 SUB PUSH1 0x20 ADD SWAP1 RETURN JUMPDEST CALLVALUE DUP1 ISZERO PUSH2 0x10D JUMPI PUSH1 0x0 DUP1 REVERT JUMPDEST POP PUSH2 0xCE PUSH1 0x4 CALLDATALOAD PUSH1 0x24 CALLDATALOAD PUSH1 0x1 PUSH1 0xA0 PUSH1 0x2 EXP SUB PUSH1 0x44 CALLDATALOAD AND PUSH2 0x2C1 JUMP JUMPDEST CALLVALUE DUP1 ISZERO PUSH2 0x134 JUMPI PUSH1 0x0 DUP1 REVERT JUMPDEST POP PUSH2 0xE5 PUSH1 0x4 CALLDATALOAD PUSH2 0x369 JUMP JUMPDEST PUSH1 0x0 DUP1 SLOAD PUSH1 0x1 PUSH1 0xA0 PUSH1 0x2 EXP SUB AND CALLER EQ PUSH2 0x158 JUMPI PUSH1 0x0 DUP1 REVERT JUMPDEST PUSH1 0x0 DUP6 DUP2 MSTORE PUSH1 0x1 PUSH1 0x20 SWAP1 DUP2 MSTORE PUSH1 0x40 DUP1 DUP4 KECCAK256 SLOAD DUP2 MLOAD PUSH32 0x89D4E6CD00000000000000000000000000000000000000000000000000000000 DUP2 MSTORE PUSH1 0x1 PUSH1 0xA0 PUSH1 0x2 EXP SUB DUP10 DUP2 AND PUSH1 0x4 DUP4 ADD MSTORE PUSH1 0x24 DUP3 ADD DUP10 SWAP1 MSTORE DUP8 DUP2 AND PUSH1 0x44 DUP4 ADD MSTORE SWAP3 MLOAD SWAP3 SWAP1 SWAP2 AND SWAP4 PUSH4 0x89D4E6CD SWAP4 PUSH1 0x64 DUP1 DUP5 ADD SWAP5 SWAP2 SWAP4 SWAP2 SWAP3 SWAP2 DUP4 SWAP1 SUB ADD SWAP1 DUP3 SWAP1 DUP8 DUP1 EXTCODESIZE ISZERO DUP1 ISZERO PUSH2 0x1DC JUMPI PUSH1 0x0 DUP1 REVERT JUMPDEST POP GAS CALL ISZERO DUP1 ISZERO PUSH2 0x1F0 JUMPI RETURNDATASIZE PUSH1 0x0 DUP1 RETURNDATACOPY RETURNDATASIZE PUSH1 0x0 REVERT JUMPDEST POP POP POP POP PUSH1 0x40 MLOAD RETURNDATASIZE PUSH1 0x20 DUP2 LT ISZERO PUSH2 0x206 JUMPI PUSH1 0x0 DUP1 REVERT JUMPDEST POP MLOAD SWAP6 SWAP5 POP POP POP POP POP JUMP JUMPDEST PUSH1 0x0 DUP1 SLOAD PUSH1 0x1 PUSH1 0xA0 PUSH1 0x2 EXP SUB AND CALLER EQ PUSH2 0x229 JUMPI PUSH1 0x0 DUP1 REVERT JUMPDEST POP PUSH1 0x0 JUMPDEST DUP2 PUSH1 0xFF AND DUP2 PUSH1 0xFF AND LT ISZERO PUSH2 0x2AE JUMPI PUSH2 0x243 PUSH2 0x384 JUMP JUMPDEST PUSH1 0x40 MLOAD DUP1 SWAP2 SUB SWAP1 PUSH1 0x0 CREATE DUP1 ISZERO DUP1 ISZERO PUSH2 0x25F JUMPI RETURNDATASIZE PUSH1 0x0 DUP1 RETURNDATACOPY RETURNDATASIZE PUSH1 0x0 REVERT JUMPDEST POP PUSH1 0x2 DUP1 SLOAD PUSH1 0x1 SWAP1 DUP2 ADD SWAP2 DUP3 SWAP1 SSTORE PUSH1 0x0 SWAP2 DUP3 MSTORE PUSH1 0x20 DUP2 SWAP1 MSTORE PUSH1 0x40 SWAP1 SWAP2 KECCAK256 DUP1 SLOAD PUSH20 0xFFFFFFFFFFFFFFFFFFFFFFFFFFFFFFFFFFFFFFFF NOT AND PUSH1 0x1 PUSH1 0xA0 PUSH1 0x2 EXP SUB SWAP4 SWAP1 SWAP4 AND SWAP3 SWAP1 SWAP3 OR SWAP1 SWAP2 SSTORE ADD PUSH2 0x22D JUMP JUMPDEST POP POP JUMP JUMPDEST PUSH1 0x0 SLOAD PUSH1 0x1 PUSH1 0xA0 PUSH1 0x2 EXP SUB AND DUP2 JUMP JUMPDEST PUSH1 0x0 SLOAD PUSH1 0x1 PUSH1 0xA0 PUSH1 0x2 EXP SUB AND CALLER EQ PUSH2 0x2D8 JUMPI PUSH1 0x0 DUP1 REVERT JUMPDEST PUSH1 0x0 DUP4 DUP2 MSTORE PUSH1 0x1 PUSH1 0x20 MSTORE PUSH1 0x40 DUP1 DUP3 KECCAK256 SLOAD DUP2 MLOAD PUSH32 0xC664C71400000000000000000000000000000000000000000000000000000000 DUP2 MSTORE PUSH1 0x4 DUP2 ADD DUP7 SWAP1 MSTORE PUSH1 0x1 PUSH1 0xA0 PUSH1 0x2 EXP SUB DUP6 DUP2 AND PUSH1 0x24 DUP4 ADD MSTORE SWAP3 MLOAD SWAP3 SWAP1 SWAP2 AND SWAP3 PUSH4 0xC664C714 SWAP3 PUSH1 0x44 DUP1 DUP5 ADD SWAP4 DUP3 SWAP1 SUB ADD DUP2 DUP4 DUP8 DUP1 EXTCODESIZE ISZERO DUP1 ISZERO PUSH2 0x34C JUMPI PUSH1 0x0 DUP1 REVERT JUMPDEST POP GAS CALL ISZERO DUP1 ISZERO PUSH2 0x360 JUMPI RETURNDATASIZE PUSH1 0x0 DUP1 RETURNDATACOPY RETURNDATASIZE PUSH1 0x0 REVERT JUMPDEST POP POP POP POP POP POP POP JUMP JUMPDEST PUSH1 0x1 PUSH1 0x20 MSTORE PUSH1 0x0 SWAP1 DUP2 MSTORE PUSH1 0x40 SWAP1 KECCAK256 SLOAD PUSH1 0x1 PUSH1 0xA0 PUSH1 0x2 EXP SUB AND DUP2 JUMP JUMPDEST PUSH1 0x40 MLOAD PUSH2 0x273 DUP1 PUSH2 0x395 DUP4 CODECOPY ADD SWAP1 JUMP STOP PUSH1 0x80 PUSH1 0x40 MSTORE CALLVALUE DUP1 ISZERO PUSH2 0x10 JUMPI PUSH1 0x0 DUP1 REVERT JUMPDEST POP PUSH1 0x0 DUP1 SLOAD PUSH1 0x1 PUSH1 0xA0 PUSH1 0x2 EXP SUB NOT AND CALLER OR SWAP1 SSTORE PUSH2 0x241 DUP1 PUSH2 0x32 PUSH1 0x0 CODECOPY PUSH1 0x0 RETURN STOP PUSH1 0x80 PUSH1 0x40 MSTORE PUSH1 0x4 CALLDATASIZE LT PUSH2 0x56 JUMPI PUSH4 0xFFFFFFFF PUSH29 0x100000000000000000000000000000000000000000000000000000000 PUSH1 0x0 CALLDATALOAD DIV AND PUSH4 0x89D4E6CD DUP2 EQ PUSH2 0x58 JUMPI DUP1 PUSH4 0x8DA5CB5B EQ PUSH2 0x97 JUMPI DUP1 PUSH4 0xC664C714 EQ PUSH2 0xC8 JUMPI JUMPDEST STOP JUMPDEST CALLVALUE DUP1 ISZERO PUSH2 0x64 JUMPI PUSH1 0x0 DUP1 REVERT JUMPDEST POP PUSH2 0x83 PUSH1 0x1 PUSH1 0xA0 PUSH1 0x2 EXP SUB PUSH1 0x4 CALLDATALOAD DUP2 AND SWAP1 PUSH1 0x24 CALLDATALOAD SWAP1 PUSH1 0x44 CALLDATALOAD AND PUSH2 0xEC JUMP JUMPDEST PUSH1 0x40 DUP1 MLOAD SWAP2 ISZERO ISZERO DUP3 MSTORE MLOAD SWAP1 DUP2 SWAP1 SUB PUSH1 0x20 ADD SWAP1 RETURN JUMPDEST CALLVALUE DUP1 ISZERO PUSH2 0xA3 JUMPI PUSH1 0x0 DUP1 REVERT JUMPDEST POP PUSH2 0xAC PUSH2 0x1B4 JUMP JUMPDEST PUSH1 0x40 DUP1 MLOAD PUSH1 0x1 PUSH1 0xA0 PUSH1 0x2 EXP SUB SWAP1 SWAP3 AND DUP3 MSTORE MLOAD SWAP1 DUP2 SWAP1 SUB PUSH1 0x20 ADD SWAP1 RETURN JUMPDEST CALLVALUE DUP1 ISZERO PUSH2 0xD4 JUMPI PUSH1 0x0 DUP1 REVERT JUMPDEST POP PUSH2 0x56 PUSH1 0x4 CALLDATALOAD PUSH1 0x1 PUSH1 0xA0 PUSH1 0x2 EXP SUB PUSH1 0x24 CALLDATALOAD AND PUSH2 0x1C3 JUMP JUMPDEST PUSH1 0x0 DUP1 SLOAD PUSH1 0x1 PUSH1 0xA0 PUSH1 0x2 EXP SUB AND CALLER EQ PUSH2 0x104 JUMPI PUSH1 0x0 DUP1 REVERT JUMPDEST DUP4 PUSH1 0x1 PUSH1 0xA0 PUSH1 0x2 EXP SUB AND PUSH4 0xA9059CBB DUP4 DUP6 PUSH1 0x40 MLOAD DUP4 PUSH4 0xFFFFFFFF AND PUSH29 0x100000000000000000000000000000000000000000000000000000000 MUL DUP2 MSTORE PUSH1 0x4 ADD DUP1 DUP4 PUSH1 0x1 PUSH1 0xA0 PUSH1 0x2 EXP SUB AND PUSH1 0x1 PUSH1 0xA0 PUSH1 0x2 EXP SUB AND DUP2 MSTORE PUSH1 0x20 ADD DUP3 DUP2 MSTORE PUSH1 0x20 ADD SWAP3 POP POP POP PUSH1 0x20 PUSH1 0x40 MLOAD DUP1 DUP4 SUB DUP2 PUSH1 0x0 DUP8 DUP1 EXTCODESIZE ISZERO DUP1 ISZERO PUSH2 0x180 JUMPI PUSH1 0x0 DUP1 REVERT JUMPDEST POP GAS CALL ISZERO DUP1 ISZERO PUSH2 0x194 JUMPI RETURNDATASIZE PUSH1 0x0 DUP1 RETURNDATACOPY RETURNDATASIZE PUSH1 0x0 REVERT JUMPDEST POP POP POP POP PUSH1 0x40 MLOAD RETURNDATASIZE PUSH1 0x20 DUP2 LT ISZERO PUSH2 0x1AA JUMPI PUSH1 0x0 DUP1 REVERT JUMPDEST POP MLOAD SWAP5 SWAP4 POP POP POP POP JUMP JUMPDEST PUSH1 0x0 SLOAD PUSH1 0x1 PUSH1 0xA0 PUSH1 0x2 EXP SUB AND DUP2 JUMP JUMPDEST PUSH1 0x0 SLOAD PUSH1 0x1 PUSH1 0xA0 PUSH1 0x2 EXP SUB AND CALLER EQ PUSH2 0x1DA JUMPI PUSH1 0x0 DUP1 REVERT JUMPDEST PUSH1 0x40 MLOAD PUSH1 0x1 PUSH1 0xA0 PUSH1 0x2 EXP SUB DUP3 AND SWAP1 DUP4 ISZERO PUSH2 0x8FC MUL SWAP1 DUP5 SWAP1 PUSH1 0x0 DUP2 DUP2 DUP2 DUP6 DUP9 DUP9 CALL SWAP4 POP POP POP POP ISZERO DUP1 ISZERO PUSH2 0x210 JUMPI RETURNDATASIZE PUSH1 0x0 DUP1 RETURNDATACOPY RETURNDATASIZE PUSH1 0x0 REVERT JUMPDEST POP POP POP JUMP STOP LOG1 PUSH6 0x627A7A723058 KECCAK256 TIMESTAMP CALLDATASIZE EXP 0x4c 0xca PUSH16 0x94D762DC905E7E0C7C57A320EC2B5C11 MOD SWAP8 0xd3 0xeb 0xf5 0xb3 EXTCODECOPY PUSH26 0x53C90029A165627A7A723058200B5C5C0BEE7E6F8A983A11E559 0xc6 0x4a PUSH9 0xC5E35BB2A897EAB964 0x46 0xaf JUMPDEST 0xe0 EQ 0x28 0x28 STOP 0x29 ",
  "sha1": "b61252aeea911e267515bd5e14d95a9e60df1153",
  "source": "pragma solidity ^0.4.25;\n\n/*\n    Just the interface so solidity can compile properly\n    We could skip this if we use generic call creation or abi.encodeWithSelector\n*/\ncontract ERC20 {\n    function totalSupply() public constant returns (uint);\n    function balanceOf(address tokenOwner) public constant returns (uint balance);\n    function allowance(address tokenOwner, address spender) public constant returns (uint remaining);\n    function transfer(address to, uint tokens) public returns (bool success);\n    function approve(address spender, uint tokens) public returns (bool success);\n    function transferFrom(address from, address to, uint tokens) public returns (bool success);\n    event Transfer(address indexed from, address indexed to, uint tokens);\n    event Approval(address indexed tokenOwner, address indexed spender, uint tokens);\n}\n\n/*\n    Generic Receiver Contract\n*/\ncontract Receiver {\n    \n    address public owner;\n\n    constructor() public {\n        /* \n            Deployer's address ( Factory in our case )\n            do not pass this as a constructor argument because \n            etherscan will have issues displaying our validated source code\n        */\n        owner = msg.sender;\n    }\n    \n    function () external payable {}\n    /*\n        @notice Send funds owned by this contract to another address\n        @param tracker  - ERC20 token tracker ( DAI / MKR / etc. )\n        @param amount   - Amount of tokens to send\n        @param receiver - Address we're sending these tokens to\n        @return true if transfer succeeded, false otherwise \n    */\n    function sendFundsTo( address tracker, uint256 amount, address receiver) public returns ( bool ) {\n        // callable only by the owner, not using modifiers to improve readability\n        require(msg.sender == owner);\n        return ERC20(tracker).transfer(receiver, amount);\n            \n    }\n\n    function sendETH(uint256 amount, address receiver) public {\n        // callable only by the owner, not using modifiers to improve readability\n        require(msg.sender == owner);\n        receiver.transfer(amount);\n            \n    }\n\n    // depending on your system,  you probably want to suicide this at some\n    // point in the future, or reuse it for other clients\n}\n\n/*\n    Factory Contract\n*/\n\ncontract Factory {\n    \n    address public owner;\n    mapping ( uint256 => address ) public receiversMap;\n    uint256 receiverCount = 0;\n    \n    constructor() public {\n        /* \n            Deployer's address ( Factory in our case )\n            do not pass this as a constructor argument because \n            etherscan will have issues displaying our validated source code\n        */\n        owner = msg.sender;\n    }\n    \n    /*\n        @notice Create a number of receiver contracts\n        @param number  - 0-255 \n    */\n    function createReceivers( uint8 number ) public {\n        require(msg.sender == owner);\n\n        for(uint8 i = 0; i < number; i++) {\n            // Create and index our new receiver\n            receiversMap[++receiverCount] = new Receiver();\n        }\n        // add event here if you need it\n    }\n    \n    /*\n        @notice Send funds in a receiver to another address\n        @param ID       - Receiver indexed ID\n        @param tracker  - ERC20 token tracker ( DAI / MKR / etc. )\n        @param amount   - Amount of tokens to send\n        @param receiver - Address we're sending tokens to\n        @return true if transfer succeeded, false otherwise \n    */\n    function sendFundsFromReceiverTo( uint256 ID, address tracker, uint256 amount, address receiver ) public returns (bool) {\n        require(msg.sender == owner);\n        return Receiver( receiversMap[ID] ).sendFundsTo( tracker, amount, receiver);\n    }\n    \n    /*\n        Batch Collection - Should support a few hundred transansfers\n        \n        @param tracker           - ERC20 token tracker ( DAI / MKR / etc. )\n        @param receiver          - Address we're sending tokens to\n        @param contractAddresses - we send an array of addresses instead of ids, so we don't need to read them ( lower gas cost )\n        @param amounts           - array of amounts \n\n    */\n    function sendETHTo( uint256 ID, uint256 amount, address receiver ) public  {\n        require(msg.sender == owner);\n        return Receiver( receiversMap[ID] ).sendETH(amount, receiver);\n    }\n    \n}",
  "sourcePath": "contracts/DepositFactory.sol",
  "type": "contract"
}